{
  "_format": "hh-sol-artifact-1",
  "contractName": "AITUToken",
  "sourceName": "contracts/AITUToken.sol",
  "abi": [
    {
      "inputs": [],
      "stateMutability": "nonpayable",
      "type": "constructor"
    },
    {
      "inputs": [
        {
          "internalType": "address",
          "name": "spender",
          "type": "address"
        },
        {
          "internalType": "uint256",
          "name": "allowance",
          "type": "uint256"
        },
        {
          "internalType": "uint256",
          "name": "needed",
          "type": "uint256"
        }
      ],
      "name": "ERC20InsufficientAllowance",
      "type": "error"
    },
    {
      "inputs": [
        {
          "internalType": "address",
          "name": "sender",
          "type": "address"
        },
        {
          "internalType": "uint256",
          "name": "balance",
          "type": "uint256"
        },
        {
          "internalType": "uint256",
          "name": "needed",
          "type": "uint256"
        }
      ],
      "name": "ERC20InsufficientBalance",
      "type": "error"
    },
    {
      "inputs": [
        {
          "internalType": "address",
          "name": "approver",
          "type": "address"
        }
      ],
      "name": "ERC20InvalidApprover",
      "type": "error"
    },
    {
      "inputs": [
        {
          "internalType": "address",
          "name": "receiver",
          "type": "address"
        }
      ],
      "name": "ERC20InvalidReceiver",
      "type": "error"
    },
    {
      "inputs": [
        {
          "internalType": "address",
          "name": "sender",
          "type": "address"
        }
      ],
      "name": "ERC20InvalidSender",
      "type": "error"
    },
    {
      "inputs": [
        {
          "internalType": "address",
          "name": "spender",
          "type": "address"
        }
      ],
      "name": "ERC20InvalidSpender",
      "type": "error"
    },
    {
      "anonymous": false,
      "inputs": [
        {
          "indexed": true,
          "internalType": "address",
          "name": "owner",
          "type": "address"
        },
        {
          "indexed": true,
          "internalType": "address",
          "name": "spender",
          "type": "address"
        },
        {
          "indexed": false,
          "internalType": "uint256",
          "name": "value",
          "type": "uint256"
        }
      ],
      "name": "Approval",
      "type": "event"
    },
    {
      "anonymous": false,
      "inputs": [
        {
          "indexed": true,
          "internalType": "address",
          "name": "buyer",
          "type": "address"
        },
        {
          "indexed": false,
          "internalType": "uint256",
          "name": "amount",
          "type": "uint256"
        },
        {
          "indexed": false,
          "internalType": "uint256",
          "name": "cost",
          "type": "uint256"
        }
      ],
      "name": "TokensPurchased",
      "type": "event"
    },
    {
      "anonymous": false,
      "inputs": [
        {
          "indexed": true,
          "internalType": "address",
          "name": "seller",
          "type": "address"
        },
        {
          "indexed": false,
          "internalType": "uint256",
          "name": "amount",
          "type": "uint256"
        },
        {
          "indexed": false,
          "internalType": "uint256",
          "name": "revenue",
          "type": "uint256"
        }
      ],
      "name": "TokensSold",
      "type": "event"
    },
    {
      "anonymous": false,
      "inputs": [
        {
          "indexed": true,
          "internalType": "address",
          "name": "from",
          "type": "address"
        },
        {
          "indexed": true,
          "internalType": "address",
          "name": "to",
          "type": "address"
        },
        {
          "indexed": false,
          "internalType": "uint256",
          "name": "value",
          "type": "uint256"
        }
      ],
      "name": "Transfer",
      "type": "event"
    },
    {
      "inputs": [
        {
          "internalType": "address",
          "name": "owner",
          "type": "address"
        },
        {
          "internalType": "address",
          "name": "spender",
          "type": "address"
        }
      ],
      "name": "allowance",
      "outputs": [
        {
          "internalType": "uint256",
          "name": "",
          "type": "uint256"
        }
      ],
      "stateMutability": "view",
      "type": "function"
    },
    {
      "inputs": [
        {
          "internalType": "address",
          "name": "spender",
          "type": "address"
        },
        {
          "internalType": "uint256",
          "name": "value",
          "type": "uint256"
        }
      ],
      "name": "approve",
      "outputs": [
        {
          "internalType": "bool",
          "name": "",
          "type": "bool"
        }
      ],
      "stateMutability": "nonpayable",
      "type": "function"
    },
    {
      "inputs": [
        {
          "internalType": "address",
          "name": "account",
          "type": "address"
        }
      ],
      "name": "balanceOf",
      "outputs": [
        {
          "internalType": "uint256",
          "name": "",
          "type": "uint256"
        }
      ],
      "stateMutability": "view",
      "type": "function"
    },
    {
      "inputs": [
        {
          "internalType": "uint256",
          "name": "amountToBuy",
          "type": "uint256"
        }
      ],
      "name": "buyTokens",
      "outputs": [],
      "stateMutability": "payable",
      "type": "function"
    },
    {
      "inputs": [],
      "name": "decimals",
      "outputs": [
        {
          "internalType": "uint8",
          "name": "",
          "type": "uint8"
        }
      ],
      "stateMutability": "view",
      "type": "function"
    },
    {
      "inputs": [],
      "name": "getContractBalance",
      "outputs": [
        {
          "internalType": "uint256",
          "name": "",
          "type": "uint256"
        }
      ],
      "stateMutability": "view",
      "type": "function"
    },
    {
      "inputs": [],
      "name": "name",
      "outputs": [
        {
          "internalType": "string",
          "name": "",
          "type": "string"
        }
      ],
      "stateMutability": "view",
      "type": "function"
    },
    {
      "inputs": [],
      "name": "owner",
      "outputs": [
        {
          "internalType": "address",
          "name": "",
          "type": "address"
        }
      ],
      "stateMutability": "view",
      "type": "function"
    },
    {
      "inputs": [
        {
          "internalType": "uint256",
          "name": "amountAITU",
          "type": "uint256"
        }
      ],
      "name": "sellTokens",
      "outputs": [],
      "stateMutability": "nonpayable",
      "type": "function"
    },
    {
      "inputs": [],
      "name": "symbol",
      "outputs": [
        {
          "internalType": "string",
          "name": "",
          "type": "string"
        }
      ],
      "stateMutability": "view",
      "type": "function"
    },
    {
      "inputs": [],
      "name": "tokenPrice",
      "outputs": [
        {
          "internalType": "uint256",
          "name": "",
          "type": "uint256"
        }
      ],
      "stateMutability": "view",
      "type": "function"
    },
    {
      "inputs": [],
      "name": "totalSupply",
      "outputs": [
        {
          "internalType": "uint256",
          "name": "",
          "type": "uint256"
        }
      ],
      "stateMutability": "view",
      "type": "function"
    },
    {
      "inputs": [
        {
          "internalType": "address",
          "name": "to",
          "type": "address"
        },
        {
          "internalType": "uint256",
          "name": "value",
          "type": "uint256"
        }
      ],
      "name": "transfer",
      "outputs": [
        {
          "internalType": "bool",
          "name": "",
          "type": "bool"
        }
      ],
      "stateMutability": "nonpayable",
      "type": "function"
    },
    {
      "inputs": [
        {
          "internalType": "address",
          "name": "from",
          "type": "address"
        },
        {
          "internalType": "address",
          "name": "to",
          "type": "address"
        },
        {
          "internalType": "uint256",
          "name": "value",
          "type": "uint256"
        }
      ],
      "name": "transferFrom",
      "outputs": [
        {
          "internalType": "bool",
          "name": "",
          "type": "bool"
        }
      ],
      "stateMutability": "nonpayable",
      "type": "function"
    },
    {
      "stateMutability": "payable",
      "type": "receive"
    }
  ],
  "bytecode": "0x60806040523480156200001157600080fd5b506040518060400160405280601081526020017f41495455546f6b656e5f534532333134000000000000000000000000000000008152506040518060400160405280600481526020017f414954550000000000000000000000000000000000000000000000000000000081525081600390816200008f919062000676565b508060049081620000a1919062000676565b50505033600560006101000a81548173ffffffffffffffffffffffffffffffffffffffff021916908373ffffffffffffffffffffffffffffffffffffffff1602179055506509184e72a0006006819055506200013033620001076200013660201b60201c565b600a620001159190620008ed565b6107d06200012491906200093e565b6200013f60201b60201c565b62000a91565b60006012905090565b600073ffffffffffffffffffffffffffffffffffffffff168273ffffffffffffffffffffffffffffffffffffffff1603620001b45760006040517fec442f05000000000000000000000000000000000000000000000000000000008152600401620001ab9190620009ce565b60405180910390fd5b620001c860008383620001cc60201b60201c565b5050565b600073ffffffffffffffffffffffffffffffffffffffff168373ffffffffffffffffffffffffffffffffffffffff160362000222578060026000828254620002159190620009eb565b92505081905550620002f8565b60008060008573ffffffffffffffffffffffffffffffffffffffff1673ffffffffffffffffffffffffffffffffffffffff16815260200190815260200160002054905081811015620002b1578381836040517fe450d38c000000000000000000000000000000000000000000000000000000008152600401620002a89392919062000a37565b60405180910390fd5b8181036000808673ffffffffffffffffffffffffffffffffffffffff1673ffffffffffffffffffffffffffffffffffffffff16815260200190815260200160002081905550505b600073ffffffffffffffffffffffffffffffffffffffff168273ffffffffffffffffffffffffffffffffffffffff160362000343578060026000828254039250508190555062000390565b806000808473ffffffffffffffffffffffffffffffffffffffff1673ffffffffffffffffffffffffffffffffffffffff168152602001908152602001600020600082825401925050819055505b8173ffffffffffffffffffffffffffffffffffffffff168373ffffffffffffffffffffffffffffffffffffffff167fddf252ad1be2c89b69c2b068fc378daa952ba7f163c4a11628f55a4df523b3ef83604051620003ef919062000a74565b60405180910390a3505050565b600081519050919050565b7f4e487b7100000000000000000000000000000000000000000000000000000000600052604160045260246000fd5b7f4e487b7100000000000000000000000000000000000000000000000000000000600052602260045260246000fd5b600060028204905060018216806200047e57607f821691505b60208210810362000494576200049362000436565b5b50919050565b60008190508160005260206000209050919050565b60006020601f8301049050919050565b600082821b905092915050565b600060088302620004fe7fffffffffffffffffffffffffffffffffffffffffffffffffffffffffffffffff82620004bf565b6200050a8683620004bf565b95508019841693508086168417925050509392505050565b6000819050919050565b6000819050919050565b600062000557620005516200054b8462000522565b6200052c565b62000522565b9050919050565b6000819050919050565b620005738362000536565b6200058b62000582826200055e565b848454620004cc565b825550505050565b600090565b620005a262000593565b620005af81848462000568565b505050565b5b81811015620005d757620005cb60008262000598565b600181019050620005b5565b5050565b601f8211156200062657620005f0816200049a565b620005fb84620004af565b810160208510156200060b578190505b620006236200061a85620004af565b830182620005b4565b50505b505050565b600082821c905092915050565b60006200064b600019846008026200062b565b1980831691505092915050565b600062000666838362000638565b9150826002028217905092915050565b6200068182620003fc565b67ffffffffffffffff8111156200069d576200069c62000407565b5b620006a9825462000465565b620006b6828285620005db565b600060209050601f831160018114620006ee5760008415620006d9578287015190505b620006e5858262000658565b86555062000755565b601f198416620006fe866200049a565b60005b82811015620007285784890151825560018201915060208501945060208101905062000701565b8683101562000748578489015162000744601f89168262000638565b8355505b6001600288020188555050505b505050505050565b7f4e487b7100000000000000000000000000000000000000000000000000000000600052601160045260246000fd5b60008160011c9050919050565b6000808291508390505b6001851115620007eb57808604811115620007c357620007c26200075d565b5b6001851615620007d35780820291505b8081029050620007e3856200078c565b9450620007a3565b94509492505050565b600082620008065760019050620008d9565b81620008165760009050620008d9565b81600181146200082f57600281146200083a5762000870565b6001915050620008d9565b60ff8411156200084f576200084e6200075d565b5b8360020a9150848211156200086957620008686200075d565b5b50620008d9565b5060208310610133831016604e8410600b8410161715620008aa5782820a905083811115620008a457620008a36200075d565b5b620008d9565b620008b9848484600162000799565b92509050818404811115620008d357620008d26200075d565b5b81810290505b9392505050565b600060ff82169050919050565b6000620008fa8262000522565b91506200090783620008e0565b9250620009367fffffffffffffffffffffffffffffffffffffffffffffffffffffffffffffffff8484620007f4565b905092915050565b60006200094b8262000522565b9150620009588362000522565b9250828202620009688162000522565b915082820484148315176200098257620009816200075d565b5b5092915050565b600073ffffffffffffffffffffffffffffffffffffffff82169050919050565b6000620009b68262000989565b9050919050565b620009c881620009a9565b82525050565b6000602082019050620009e56000830184620009bd565b92915050565b6000620009f88262000522565b915062000a058362000522565b925082820190508082111562000a205762000a1f6200075d565b5b92915050565b62000a318162000522565b82525050565b600060608201905062000a4e6000830186620009bd565b62000a5d602083018562000a26565b62000a6c604083018462000a26565b949350505050565b600060208201905062000a8b600083018462000a26565b92915050565b611a268062000aa16000396000f3fe6080604052600436106100e15760003560e01c80636f9fb98a1161007f5780638da5cb5b116100595780638da5cb5b146102c057806395d89b41146102eb578063a9059cbb14610316578063dd62ed3e14610353576100e8565b80636f9fb98a1461022d57806370a08231146102585780637ff9b59614610295576100e8565b806323b872dd116100bb57806323b872dd14610180578063313ce567146101bd5780633610724e146101e85780636c11bcd314610204576100e8565b806306fdde03146100ed578063095ea7b31461011857806318160ddd14610155576100e8565b366100e857005b600080fd5b3480156100f957600080fd5b50610102610390565b60405161010f9190611102565b60405180910390f35b34801561012457600080fd5b5061013f600480360381019061013a91906111bd565b610422565b60405161014c9190611218565b60405180910390f35b34801561016157600080fd5b5061016a610445565b6040516101779190611242565b60405180910390f35b34801561018c57600080fd5b506101a760048036038101906101a2919061125d565b61044f565b6040516101b49190611218565b60405180910390f35b3480156101c957600080fd5b506101d261047e565b6040516101df91906112cc565b60405180910390f35b61020260048036038101906101fd91906112e7565b610487565b005b34801561021057600080fd5b5061022b600480360381019061022691906112e7565b6106ec565b005b34801561023957600080fd5b5061024261091b565b60405161024f9190611242565b60405180910390f35b34801561026457600080fd5b5061027f600480360381019061027a9190611314565b610923565b60405161028c9190611242565b60405180910390f35b3480156102a157600080fd5b506102aa61096b565b6040516102b79190611242565b60405180910390f35b3480156102cc57600080fd5b506102d5610971565b6040516102e29190611350565b60405180910390f35b3480156102f757600080fd5b50610300610997565b60405161030d9190611102565b60405180910390f35b34801561032257600080fd5b5061033d600480360381019061033891906111bd565b610a29565b60405161034a9190611218565b60405180910390f35b34801561035f57600080fd5b5061037a6004803603810190610375919061136b565b610a4c565b6040516103879190611242565b60405180910390f35b60606003805461039f906113da565b80601f01602080910402602001604051908101604052809291908181526020018280546103cb906113da565b80156104185780601f106103ed57610100808354040283529160200191610418565b820191906000526020600020905b8154815290600101906020018083116103fb57829003601f168201915b5050505050905090565b60008061042d610ad3565b905061043a818585610adb565b600191505092915050565b6000600254905090565b60008061045a610ad3565b9050610467858285610aed565b610472858585610b82565b60019150509392505050565b60006012905090565b600081116104ca576040517f08c379a00000000000000000000000000000000000000000000000000000000081526004016104c190611457565b60405180910390fd5b60006104d461047e565b600a6104e091906115d9565b600654836104ee9190611624565b6104f89190611695565b90508034101561053d576040517f08c379a000000000000000000000000000000000000000000000000000000000815260040161053490611712565b60405180910390fd5b81610569600560009054906101000a900473ffffffffffffffffffffffffffffffffffffffff16610923565b10156105aa576040517f08c379a00000000000000000000000000000000000000000000000000000000081526004016105a19061177e565b60405180910390fd5b6105d7600560009054906101000a900473ffffffffffffffffffffffffffffffffffffffff163384610b82565b803411156106985760003373ffffffffffffffffffffffffffffffffffffffff168234610604919061179e565b60405161061090611803565b60006040518083038185875af1925050503d806000811461064d576040519150601f19603f3d011682016040523d82523d6000602084013e610652565b606091505b5050905080610696576040517f08c379a000000000000000000000000000000000000000000000000000000000815260040161068d90611864565b60405180910390fd5b505b3373ffffffffffffffffffffffffffffffffffffffff167f8fafebcaf9d154343dad25669bfa277f4fbacd7ac6b0c4fed522580e040a0f3383836040516106e0929190611884565b60405180910390a25050565b6000811161072f576040517f08c379a000000000000000000000000000000000000000000000000000000000815260040161072690611457565b60405180910390fd5b8061073933610923565b101561077a576040517f08c379a00000000000000000000000000000000000000000000000000000000081526004016107719061177e565b60405180910390fd5b600061078461047e565b600a61079091906115d9565b6006548361079e9190611624565b6107a89190611695565b9050804710156107ed576040517f08c379a00000000000000000000000000000000000000000000000000000000081526004016107e4906118f9565b60405180910390fd5b61081a33600560009054906101000a900473ffffffffffffffffffffffffffffffffffffffff1684610b82565b60003373ffffffffffffffffffffffffffffffffffffffff168260405161084090611803565b60006040518083038185875af1925050503d806000811461087d576040519150601f19603f3d011682016040523d82523d6000602084013e610882565b606091505b50509050806108c6576040517f08c379a00000000000000000000000000000000000000000000000000000000081526004016108bd90611965565b60405180910390fd5b3373ffffffffffffffffffffffffffffffffffffffff167f2dcf9433d75db0d8b1c172641f85e319ffe4ad22e108a95d1847ceb906e5195d848460405161090e929190611884565b60405180910390a2505050565b600047905090565b60008060008373ffffffffffffffffffffffffffffffffffffffff1673ffffffffffffffffffffffffffffffffffffffff168152602001908152602001600020549050919050565b60065481565b600560009054906101000a900473ffffffffffffffffffffffffffffffffffffffff1681565b6060600480546109a6906113da565b80601f01602080910402602001604051908101604052809291908181526020018280546109d2906113da565b8015610a1f5780601f106109f457610100808354040283529160200191610a1f565b820191906000526020600020905b815481529060010190602001808311610a0257829003601f168201915b5050505050905090565b600080610a34610ad3565b9050610a41818585610b82565b600191505092915050565b6000600160008473ffffffffffffffffffffffffffffffffffffffff1673ffffffffffffffffffffffffffffffffffffffff16815260200190815260200160002060008373ffffffffffffffffffffffffffffffffffffffff1673ffffffffffffffffffffffffffffffffffffffff16815260200190815260200160002054905092915050565b600033905090565b610ae88383836001610c76565b505050565b6000610af98484610a4c565b90507fffffffffffffffffffffffffffffffffffffffffffffffffffffffffffffffff811015610b7c5781811015610b6c578281836040517ffb8f41b2000000000000000000000000000000000000000000000000000000008152600401610b6393929190611985565b60405180910390fd5b610b7b84848484036000610c76565b5b50505050565b600073ffffffffffffffffffffffffffffffffffffffff168373ffffffffffffffffffffffffffffffffffffffff1603610bf45760006040517f96c6fd1e000000000000000000000000000000000000000000000000000000008152600401610beb9190611350565b60405180910390fd5b600073ffffffffffffffffffffffffffffffffffffffff168273ffffffffffffffffffffffffffffffffffffffff1603610c665760006040517fec442f05000000000000000000000000000000000000000000000000000000008152600401610c5d9190611350565b60405180910390fd5b610c71838383610e4d565b505050565b600073ffffffffffffffffffffffffffffffffffffffff168473ffffffffffffffffffffffffffffffffffffffff1603610ce85760006040517fe602df05000000000000000000000000000000000000000000000000000000008152600401610cdf9190611350565b60405180910390fd5b600073ffffffffffffffffffffffffffffffffffffffff168373ffffffffffffffffffffffffffffffffffffffff1603610d5a5760006040517f94280d62000000000000000000000000000000000000000000000000000000008152600401610d519190611350565b60405180910390fd5b81600160008673ffffffffffffffffffffffffffffffffffffffff1673ffffffffffffffffffffffffffffffffffffffff16815260200190815260200160002060008573ffffffffffffffffffffffffffffffffffffffff1673ffffffffffffffffffffffffffffffffffffffff168152602001908152602001600020819055508015610e47578273ffffffffffffffffffffffffffffffffffffffff168473ffffffffffffffffffffffffffffffffffffffff167f8c5be1e5ebec7d5bd14f71427d1e84f3dd0314c0f7b2291e5b200ac8c7c3b92584604051610e3e9190611242565b60405180910390a35b50505050565b600073ffffffffffffffffffffffffffffffffffffffff168373ffffffffffffffffffffffffffffffffffffffff1603610e9f578060026000828254610e9391906119bc565b92505081905550610f72565b60008060008573ffffffffffffffffffffffffffffffffffffffff1673ffffffffffffffffffffffffffffffffffffffff16815260200190815260200160002054905081811015610f2b578381836040517fe450d38c000000000000000000000000000000000000000000000000000000008152600401610f2293929190611985565b60405180910390fd5b8181036000808673ffffffffffffffffffffffffffffffffffffffff1673ffffffffffffffffffffffffffffffffffffffff16815260200190815260200160002081905550505b600073ffffffffffffffffffffffffffffffffffffffff168273ffffffffffffffffffffffffffffffffffffffff1603610fbb5780600260008282540392505081905550611008565b806000808473ffffffffffffffffffffffffffffffffffffffff1673ffffffffffffffffffffffffffffffffffffffff168152602001908152602001600020600082825401925050819055505b8173ffffffffffffffffffffffffffffffffffffffff168373ffffffffffffffffffffffffffffffffffffffff167fddf252ad1be2c89b69c2b068fc378daa952ba7f163c4a11628f55a4df523b3ef836040516110659190611242565b60405180910390a3505050565b600081519050919050565b600082825260208201905092915050565b60005b838110156110ac578082015181840152602081019050611091565b60008484015250505050565b6000601f19601f8301169050919050565b60006110d482611072565b6110de818561107d565b93506110ee81856020860161108e565b6110f7816110b8565b840191505092915050565b6000602082019050818103600083015261111c81846110c9565b905092915050565b600080fd5b600073ffffffffffffffffffffffffffffffffffffffff82169050919050565b600061115482611129565b9050919050565b61116481611149565b811461116f57600080fd5b50565b6000813590506111818161115b565b92915050565b6000819050919050565b61119a81611187565b81146111a557600080fd5b50565b6000813590506111b781611191565b92915050565b600080604083850312156111d4576111d3611124565b5b60006111e285828601611172565b92505060206111f3858286016111a8565b9150509250929050565b60008115159050919050565b611212816111fd565b82525050565b600060208201905061122d6000830184611209565b92915050565b61123c81611187565b82525050565b60006020820190506112576000830184611233565b92915050565b60008060006060848603121561127657611275611124565b5b600061128486828701611172565b935050602061129586828701611172565b92505060406112a6868287016111a8565b9150509250925092565b600060ff82169050919050565b6112c6816112b0565b82525050565b60006020820190506112e160008301846112bd565b92915050565b6000602082840312156112fd576112fc611124565b5b600061130b848285016111a8565b91505092915050565b60006020828403121561132a57611329611124565b5b600061133884828501611172565b91505092915050565b61134a81611149565b82525050565b60006020820190506113656000830184611341565b92915050565b6000806040838503121561138257611381611124565b5b600061139085828601611172565b92505060206113a185828601611172565b9150509250929050565b7f4e487b7100000000000000000000000000000000000000000000000000000000600052602260045260246000fd5b600060028204905060018216806113f257607f821691505b602082108103611405576114046113ab565b5b50919050565b7f416d6f756e74206d7573742062652067726561746572207468616e207a65726f600082015250565b600061144160208361107d565b915061144c8261140b565b602082019050919050565b6000602082019050818103600083015261147081611434565b9050919050565b7f4e487b7100000000000000000000000000000000000000000000000000000000600052601160045260246000fd5b60008160011c9050919050565b6000808291508390505b60018511156114fd578086048111156114d9576114d8611477565b5b60018516156114e85780820291505b80810290506114f6856114a6565b94506114bd565b94509492505050565b60008261151657600190506115d2565b8161152457600090506115d2565b816001811461153a576002811461154457611573565b60019150506115d2565b60ff84111561155657611555611477565b5b8360020a91508482111561156d5761156c611477565b5b506115d2565b5060208310610133831016604e8410600b84101617156115a85782820a9050838111156115a3576115a2611477565b5b6115d2565b6115b584848460016114b3565b925090508184048111156115cc576115cb611477565b5b81810290505b9392505050565b60006115e482611187565b91506115ef836112b0565b925061161c7fffffffffffffffffffffffffffffffffffffffffffffffffffffffffffffffff8484611506565b905092915050565b600061162f82611187565b915061163a83611187565b925082820261164881611187565b9150828204841483151761165f5761165e611477565b5b5092915050565b7f4e487b7100000000000000000000000000000000000000000000000000000000600052601260045260246000fd5b60006116a082611187565b91506116ab83611187565b9250826116bb576116ba611666565b5b828204905092915050565b7f4e6f7420656e6f756768204554482073656e7400000000000000000000000000600082015250565b60006116fc60138361107d565b9150611707826116c6565b602082019050919050565b6000602082019050818103600083015261172b816116ef565b9050919050565b7f4e6f7420656e6f75676820746f6b656e73000000000000000000000000000000600082015250565b600061176860118361107d565b915061177382611732565b602082019050919050565b600060208201905081810360008301526117978161175b565b9050919050565b60006117a982611187565b91506117b483611187565b92508282039050818111156117cc576117cb611477565b5b92915050565b600081905092915050565b50565b60006117ed6000836117d2565b91506117f8826117dd565b600082019050919050565b600061180e826117e0565b9150819050919050565b7f45544820726566756e64206661696c6564000000000000000000000000000000600082015250565b600061184e60118361107d565b915061185982611818565b602082019050919050565b6000602082019050818103600083015261187d81611841565b9050919050565b60006040820190506118996000830185611233565b6118a66020830184611233565b9392505050565b7f4e6f7420656e6f7567682045544820696e20636f6e7472616374000000000000600082015250565b60006118e3601a8361107d565b91506118ee826118ad565b602082019050919050565b60006020820190508181036000830152611912816118d6565b9050919050565b7f455448207472616e73666572206661696c656400000000000000000000000000600082015250565b600061194f60138361107d565b915061195a82611919565b602082019050919050565b6000602082019050818103600083015261197e81611942565b9050919050565b600060608201905061199a6000830186611341565b6119a76020830185611233565b6119b46040830184611233565b949350505050565b60006119c782611187565b91506119d283611187565b92508282019050808211156119ea576119e9611477565b5b9291505056fea264697066735822122089b64bf20fd4728e502fb69c45062113697742c762d70b825cb0785595628dff64736f6c63430008140033",
  "linkReferences": {},
  "deployedLinkReferences": {}
}